{
  "_format": "hh-sol-artifact-1",
  "contractName": "TrackAndTrace",
  "sourceName": "contracts/Track_and_Trace.sol",
  "abi": [
    {
      "inputs": [],
      "stateMutability": "nonpayable",
      "type": "constructor"
    },
    {
      "anonymous": false,
      "inputs": [
        {
          "indexed": true,
          "internalType": "address",
          "name": "user",
          "type": "address"
        },
        {
          "indexed": true,
          "internalType": "string",
          "name": "productName",
          "type": "string"
        },
        {
          "indexed": true,
          "internalType": "uint256",
          "name": "productValue",
          "type": "uint256"
        }
      ],
      "name": "ProductCreated",
      "type": "event"
    },
    {
      "anonymous": false,
      "inputs": [
        {
          "indexed": true,
          "internalType": "address",
          "name": "user",
          "type": "address"
        }
      ],
      "name": "ProductDeleted",
      "type": "event"
    },
    {
      "anonymous": false,
      "inputs": [
        {
          "indexed": true,
          "internalType": "address",
          "name": "user",
          "type": "address"
        },
        {
          "indexed": true,
          "internalType": "string",
          "name": "productName",
          "type": "string"
        },
        {
          "indexed": true,
          "internalType": "uint256",
          "name": "productValue",
          "type": "uint256"
        }
      ],
      "name": "ProductUpdated",
      "type": "event"
    },
    {
      "inputs": [
        {
          "internalType": "string",
          "name": "_productName",
          "type": "string"
        },
        {
          "internalType": "string",
          "name": "_productDescription",
          "type": "string"
        },
        {
          "internalType": "uint256",
          "name": "_productValue",
          "type": "uint256"
        }
      ],
      "name": "createProduct",
      "outputs": [],
      "stateMutability": "nonpayable",
      "type": "function"
    },
    {
      "inputs": [],
      "name": "deleteProduct",
      "outputs": [],
      "stateMutability": "nonpayable",
      "type": "function"
    },
    {
      "inputs": [],
      "name": "owner",
      "outputs": [
        {
          "internalType": "address",
          "name": "",
          "type": "address"
        }
      ],
      "stateMutability": "view",
      "type": "function"
    },
    {
      "inputs": [],
      "name": "productDescription",
      "outputs": [
        {
          "internalType": "string",
          "name": "",
          "type": "string"
        }
      ],
      "stateMutability": "view",
      "type": "function"
    },
    {
      "inputs": [],
      "name": "productName",
      "outputs": [
        {
          "internalType": "string",
          "name": "",
          "type": "string"
        }
      ],
      "stateMutability": "view",
      "type": "function"
    },
    {
      "inputs": [],
      "name": "productValue",
      "outputs": [
        {
          "internalType": "uint256",
          "name": "",
          "type": "uint256"
        }
      ],
      "stateMutability": "view",
      "type": "function"
    },
    {
      "inputs": [
        {
          "internalType": "string",
          "name": "_productName",
          "type": "string"
        },
        {
          "internalType": "string",
          "name": "_productDescription",
          "type": "string"
        },
        {
          "internalType": "uint256",
          "name": "_productValue",
          "type": "uint256"
        }
      ],
      "name": "updateProduct",
      "outputs": [],
      "stateMutability": "nonpayable",
      "type": "function"
    }
  ],
  "bytecode": "0x60806040523480156200001157600080fd5b50336000806101000a81548173ffffffffffffffffffffffffffffffffffffffff021916908373ffffffffffffffffffffffffffffffffffffffff160217905550604051806020016040528060008152506001908051906020019062000079929190620000b0565b506040518060200160405280600081525060029080519060200190620000a1929190620000b0565b506000600381905550620001c5565b828054620000be9062000160565b90600052602060002090601f016020900481019282620000e257600085556200012e565b82601f10620000fd57805160ff19168380011785556200012e565b828001600101855582156200012e579182015b828111156200012d57825182559160200191906001019062000110565b5b5090506200013d919062000141565b5090565b5b808211156200015c57600081600090555060010162000142565b5090565b600060028204905060018216806200017957607f821691505b6020821081141562000190576200018f62000196565b5b50919050565b7f4e487b7100000000000000000000000000000000000000000000000000000000600052602260045260246000fd5b610c4a80620001d56000396000f3fe608060405234801561001057600080fd5b506004361061007d5760003560e01c80637f7650eb1161005b5780637f7650eb146100c65780638a30f8cc146100e45780638da5cb5b14610102578063a1422209146101205761007d565b8063217d8d3e146100825780632280fe3d146100a05780636e4f3947146100bc575b600080fd5b61008a61013c565b6040516100979190610985565b60405180910390f35b6100ba60048036038101906100b59190610713565b610142565b005b6100c4610267565b005b6100ce61038e565b6040516100db9190610903565b60405180910390f35b6100ec61041c565b6040516100f99190610903565b60405180910390f35b61010a6104aa565b60405161011791906108e8565b60405180910390f35b61013a60048036038101906101359190610713565b6104ce565b005b60035481565b60008054906101000a900473ffffffffffffffffffffffffffffffffffffffff1673ffffffffffffffffffffffffffffffffffffffff163373ffffffffffffffffffffffffffffffffffffffff16146101d0576040517f08c379a00000000000000000000000000000000000000000000000000000000081526004016101c790610965565b60405180910390fd5b82600190805190602001906101e69291906105f3565b5081600290805190602001906101fd9291906105f3565b5080600381905550600354600160405161021791906108d1565b60405180910390203373ffffffffffffffffffffffffffffffffffffffff167f68d3f247f57d56f1c45cd59beaf89d49cd7f34b858fcbd5b21bb7f098eecd10260405160405180910390a4505050565b60008054906101000a900473ffffffffffffffffffffffffffffffffffffffff1673ffffffffffffffffffffffffffffffffffffffff163373ffffffffffffffffffffffffffffffffffffffff16146102f5576040517f08c379a00000000000000000000000000000000000000000000000000000000081526004016102ec90610925565b60405180910390fd5b604051806020016040528060008152506001908051906020019061031a9291906105f3565b5060405180602001604052806000815250600290805190602001906103409291906105f3565b5060006003819055503373ffffffffffffffffffffffffffffffffffffffff167ffa0d82212023d711b71ba3811216053fe26db94fe33a9039fb205d216851246960405160405180910390a2565b6001805461039b90610ab0565b80601f01602080910402602001604051908101604052809291908181526020018280546103c790610ab0565b80156104145780601f106103e957610100808354040283529160200191610414565b820191906000526020600020905b8154815290600101906020018083116103f757829003601f168201915b505050505081565b6002805461042990610ab0565b80601f016020809104026020016040519081016040528092919081815260200182805461045590610ab0565b80156104a25780601f10610477576101008083540402835291602001916104a2565b820191906000526020600020905b81548152906001019060200180831161048557829003601f168201915b505050505081565b60008054906101000a900473ffffffffffffffffffffffffffffffffffffffff1681565b60008054906101000a900473ffffffffffffffffffffffffffffffffffffffff1673ffffffffffffffffffffffffffffffffffffffff163373ffffffffffffffffffffffffffffffffffffffff161461055c576040517f08c379a000000000000000000000000000000000000000000000000000000000815260040161055390610945565b60405180910390fd5b82600190805190602001906105729291906105f3565b5081600290805190602001906105899291906105f3565b508060038190555060035460016040516105a391906108d1565b60405180910390203373ffffffffffffffffffffffffffffffffffffffff167fbaf667e3baf05ce6eff59d91e89b115acea6a844bf52e76bbf1e185059ff60c760405160405180910390a4505050565b8280546105ff90610ab0565b90600052602060002090601f0160209004810192826106215760008555610668565b82601f1061063a57805160ff1916838001178555610668565b82800160010185558215610668579182015b8281111561066757825182559160200191906001019061064c565b5b5090506106759190610679565b5090565b5b8082111561069257600081600090555060010161067a565b5090565b60006106a96106a4846109c5565b6109a0565b9050828152602081018484840111156106c157600080fd5b6106cc848285610a6e565b509392505050565b600082601f8301126106e557600080fd5b81356106f5848260208601610696565b91505092915050565b60008135905061070d81610bfd565b92915050565b60008060006060848603121561072857600080fd5b600084013567ffffffffffffffff81111561074257600080fd5b61074e868287016106d4565b935050602084013567ffffffffffffffff81111561076b57600080fd5b610777868287016106d4565b9250506040610788868287016106fe565b9150509250925092565b61079b81610a32565b82525050565b60006107ac82610a0b565b6107b68185610a16565b93506107c6818560208601610a7d565b6107cf81610b71565b840191505092915050565b600081546107e781610ab0565b6107f18186610a27565b9450600182166000811461080c576001811461081d57610850565b60ff19831686528186019350610850565b610826856109f6565b60005b8381101561084857815481890152600182019150602081019050610829565b838801955050505b50505092915050565b6000610866601d83610a16565b915061087182610b82565b602082019050919050565b6000610889601d83610a16565b915061089482610bab565b602082019050919050565b60006108ac601d83610a16565b91506108b782610bd4565b602082019050919050565b6108cb81610a64565b82525050565b60006108dd82846107da565b915081905092915050565b60006020820190506108fd6000830184610792565b92915050565b6000602082019050818103600083015261091d81846107a1565b905092915050565b6000602082019050818103600083015261093e81610859565b9050919050565b6000602082019050818103600083015261095e8161087c565b9050919050565b6000602082019050818103600083015261097e8161089f565b9050919050565b600060208201905061099a60008301846108c2565b92915050565b60006109aa6109bb565b90506109b68282610ae2565b919050565b6000604051905090565b600067ffffffffffffffff8211156109e0576109df610b42565b5b6109e982610b71565b9050602081019050919050565b60008190508160005260206000209050919050565b600081519050919050565b600082825260208201905092915050565b600081905092915050565b6000610a3d82610a44565b9050919050565b600073ffffffffffffffffffffffffffffffffffffffff82169050919050565b6000819050919050565b82818337600083830152505050565b60005b83811015610a9b578082015181840152602081019050610a80565b83811115610aaa576000848401525b50505050565b60006002820490506001821680610ac857607f821691505b60208210811415610adc57610adb610b13565b5b50919050565b610aeb82610b71565b810181811067ffffffffffffffff82111715610b0a57610b09610b42565b5b80604052505050565b7f4e487b7100000000000000000000000000000000000000000000000000000000600052602260045260246000fd5b7f4e487b7100000000000000000000000000000000000000000000000000000000600052604160045260246000fd5b6000601f19601f8301169050919050565b7f4f6e6c79206f776e65722063616e2064656c6574652070726f64756374000000600082015250565b7f4f6e6c79206f776e65722063616e206372656174652070726f64756374000000600082015250565b7f4f6e6c79206f776e65722063616e207570646174652070726f64756374000000600082015250565b610c0681610a64565b8114610c1157600080fd5b5056fea264697066735822122004c425f0f8aa302d2c6bf86cc91c91efe8b2aabf7f0be76d55ad3562ff8329fe64736f6c63430008040033",
  "linkReferences": {},
  "deployedLinkReferences": {}
}